{
  "_format": "hh-sol-artifact-1",
  "contractName": "Lottery",
  "sourceName": "contracts/Lottery.sol",
  "abi": [
    {
      "inputs": [
        {
          "internalType": "address",
          "name": "vrfCoordinatorV2",
          "type": "address"
        },
        {
          "internalType": "uint256",
          "name": "entranceFee",
          "type": "uint256"
        },
        {
          "internalType": "bytes32",
          "name": "keyHash",
          "type": "bytes32"
        },
        {
          "internalType": "uint64",
          "name": "subscriptionId",
          "type": "uint64"
        },
        {
          "internalType": "uint32",
          "name": "callbackGasLimit",
          "type": "uint32"
        },
        {
          "internalType": "uint256",
          "name": "interval",
          "type": "uint256"
        }
      ],
      "stateMutability": "nonpayable",
      "type": "constructor"
    },
    {
      "inputs": [],
      "name": "Lottery__NotEnoughETHEntered",
      "type": "error"
    },
    {
      "inputs": [],
      "name": "Lottery__NotOpen",
      "type": "error"
    },
    {
      "inputs": [],
      "name": "Lottery__TransferFailed",
      "type": "error"
    },
    {
      "inputs": [
        {
          "internalType": "uint256",
          "name": "currentBalance",
          "type": "uint256"
        },
        {
          "internalType": "uint256",
          "name": "numPlayers",
          "type": "uint256"
        },
        {
          "internalType": "uint256",
          "name": "lotteryState",
          "type": "uint256"
        }
      ],
      "name": "Lottery__UpkeepNotNeeded",
      "type": "error"
    },
    {
      "inputs": [
        {
          "internalType": "address",
          "name": "have",
          "type": "address"
        },
        {
          "internalType": "address",
          "name": "want",
          "type": "address"
        }
      ],
      "name": "OnlyCoordinatorCanFulfill",
      "type": "error"
    },
    {
      "anonymous": false,
      "inputs": [
        {
          "indexed": true,
          "internalType": "address",
          "name": "player",
          "type": "address"
        }
      ],
      "name": "LotteryEnter",
      "type": "event"
    },
    {
      "anonymous": false,
      "inputs": [
        {
          "indexed": true,
          "internalType": "uint256",
          "name": "requestId",
          "type": "uint256"
        }
      ],
      "name": "RequestedLotteryWinner",
      "type": "event"
    },
    {
      "anonymous": false,
      "inputs": [
        {
          "indexed": true,
          "internalType": "address",
          "name": "winner",
          "type": "address"
        }
      ],
      "name": "WinnerPicked",
      "type": "event"
    },
    {
      "inputs": [
        {
          "internalType": "bytes",
          "name": "",
          "type": "bytes"
        }
      ],
      "name": "checkUpkeep",
      "outputs": [
        {
          "internalType": "bool",
          "name": "upkeepNeeded",
          "type": "bool"
        },
        {
          "internalType": "bytes",
          "name": "",
          "type": "bytes"
        }
      ],
      "stateMutability": "nonpayable",
      "type": "function"
    },
    {
      "inputs": [],
      "name": "enterLottery",
      "outputs": [],
      "stateMutability": "payable",
      "type": "function"
    },
    {
      "inputs": [],
      "name": "getEntranceFee",
      "outputs": [
        {
          "internalType": "uint256",
          "name": "",
          "type": "uint256"
        }
      ],
      "stateMutability": "view",
      "type": "function"
    },
    {
      "inputs": [],
      "name": "getLastTimeStamp",
      "outputs": [
        {
          "internalType": "uint256",
          "name": "",
          "type": "uint256"
        }
      ],
      "stateMutability": "view",
      "type": "function"
    },
    {
      "inputs": [],
      "name": "getLotteryState",
      "outputs": [
        {
          "internalType": "enum Lottery.LotteryState",
          "name": "",
          "type": "uint8"
        }
      ],
      "stateMutability": "view",
      "type": "function"
    },
    {
      "inputs": [],
      "name": "getNumOfPlayers",
      "outputs": [
        {
          "internalType": "uint256",
          "name": "",
          "type": "uint256"
        }
      ],
      "stateMutability": "view",
      "type": "function"
    },
    {
      "inputs": [],
      "name": "getNumWords",
      "outputs": [
        {
          "internalType": "uint32",
          "name": "",
          "type": "uint32"
        }
      ],
      "stateMutability": "pure",
      "type": "function"
    },
    {
      "inputs": [
        {
          "internalType": "uint256",
          "name": "index",
          "type": "uint256"
        }
      ],
      "name": "getPlayer",
      "outputs": [
        {
          "internalType": "address",
          "name": "",
          "type": "address"
        }
      ],
      "stateMutability": "view",
      "type": "function"
    },
    {
      "inputs": [],
      "name": "getRecenWinner",
      "outputs": [
        {
          "internalType": "address",
          "name": "",
          "type": "address"
        }
      ],
      "stateMutability": "view",
      "type": "function"
    },
    {
      "inputs": [],
      "name": "getRequestConfirmation",
      "outputs": [
        {
          "internalType": "uint16",
          "name": "",
          "type": "uint16"
        }
      ],
      "stateMutability": "pure",
      "type": "function"
    },
    {
      "inputs": [
        {
          "internalType": "bytes",
          "name": "",
          "type": "bytes"
        }
      ],
      "name": "performUpkeep",
      "outputs": [],
      "stateMutability": "nonpayable",
      "type": "function"
    },
    {
      "inputs": [
        {
          "internalType": "uint256",
          "name": "requestId",
          "type": "uint256"
        },
        {
          "internalType": "uint256[]",
          "name": "randomWords",
          "type": "uint256[]"
        }
      ],
      "name": "rawFulfillRandomWords",
      "outputs": [],
      "stateMutability": "nonpayable",
      "type": "function"
    }
  ],
  "bytecode": "0x6101606040523480156200001257600080fd5b50604051620017b9380380620017b9833981810160405281019062000038919062000294565b858073ffffffffffffffffffffffffffffffffffffffff1660808173ffffffffffffffffffffffffffffffffffffffff1681525050508460a081815250508573ffffffffffffffffffffffffffffffffffffffff1660c08173ffffffffffffffffffffffffffffffffffffffff16815250508360e081815250508267ffffffffffffffff166101008167ffffffffffffffff16815250508163ffffffff166101208163ffffffff16815250506000600160146101000a81548160ff021916908360018111156200010d576200010c62000330565b5b0217905550426002819055508061014081815250505050505050506200035f565b600080fd5b600073ffffffffffffffffffffffffffffffffffffffff82169050919050565b6000620001608262000133565b9050919050565b620001728162000153565b81146200017e57600080fd5b50565b600081519050620001928162000167565b92915050565b6000819050919050565b620001ad8162000198565b8114620001b957600080fd5b50565b600081519050620001cd81620001a2565b92915050565b6000819050919050565b620001e881620001d3565b8114620001f457600080fd5b50565b6000815190506200020881620001dd565b92915050565b600067ffffffffffffffff82169050919050565b6200022d816200020e565b81146200023957600080fd5b50565b6000815190506200024d8162000222565b92915050565b600063ffffffff82169050919050565b6200026e8162000253565b81146200027a57600080fd5b50565b6000815190506200028e8162000263565b92915050565b60008060008060008060c08789031215620002b457620002b36200012e565b5b6000620002c489828a0162000181565b9650506020620002d789828a01620001bc565b9550506040620002ea89828a01620001f7565b9450506060620002fd89828a016200023c565b93505060806200031089828a016200027d565b92505060a06200032389828a01620001bc565b9150509295509295509295565b7f4e487b7100000000000000000000000000000000000000000000000000000000600052602160045260246000fd5b60805160a05160c05160e0516101005161012051610140516113f1620003c86000396000610621015260006104f9015260006104d6015260006104b5015260006104790152600081816102b4015261068d0152600081816102da015261032e01526113f16000f3fe6080604052600436106100a75760003560e01c80636b68c03c116100645780636b68c03c146101aa5780636e04ff0d146101d5578063c1af578514610213578063c1c244e81461021d578063ca6a9ef814610248578063e55ae4e814610273576100a7565b806309bc33a7146100ac5780631fe543e3146100d75780633c14f7c7146101005780634585e33b1461012b57806353a2c19a14610154578063565429de1461017f575b600080fd5b3480156100b857600080fd5b506100c16102b0565b6040516100ce9190610b45565b60405180910390f35b3480156100e357600080fd5b506100fe60048036038101906100f99190610cf9565b6102d8565b005b34801561010c57600080fd5b50610115610398565b6040516101229190610d96565b60405180910390f35b34801561013757600080fd5b50610152600480360381019061014d9190610e0c565b6103c2565b005b34801561016057600080fd5b506101696105b2565b6040516101769190610e78565b60405180910390f35b34801561018b57600080fd5b506101946105bb565b6040516101a19190610b45565b60405180910390f35b3480156101b657600080fd5b506101bf6105c7565b6040516101cc9190610f0a565b60405180910390f35b3480156101e157600080fd5b506101fc60048036038101906101f79190610fda565b6105de565b60405161020a9291906110bd565b60405180910390f35b61021b61068b565b005b34801561022957600080fd5b506102326107fa565b60405161023f9190610b45565b60405180910390f35b34801561025457600080fd5b5061025d610804565b60405161026a919061110a565b60405180910390f35b34801561027f57600080fd5b5061029a60048036038101906102959190611125565b61080d565b6040516102a79190610d96565b60405180910390f35b60007f0000000000000000000000000000000000000000000000000000000000000000905090565b7f000000000000000000000000000000000000000000000000000000000000000073ffffffffffffffffffffffffffffffffffffffff163373ffffffffffffffffffffffffffffffffffffffff161461038a57337f00000000000000000000000000000000000000000000000000000000000000006040517f1cf993f4000000000000000000000000000000000000000000000000000000008152600401610381929190611152565b60405180910390fd5b6103948282610854565b5050565b6000600160009054906101000a900473ffffffffffffffffffffffffffffffffffffffff16905090565b60006103dc604051806020016040528060008152506105de565b5090508061044b5747600080549050600160149054906101000a900460ff16600181111561040d5761040c610e93565b5b6040517f6e195f250000000000000000000000000000000000000000000000000000000081526004016104429392919061117b565b60405180910390fd5b60018060146101000a81548160ff021916908360018111156104705761046f610e93565b5b021790555060007f000000000000000000000000000000000000000000000000000000000000000073ffffffffffffffffffffffffffffffffffffffff16635d3b1d307f00000000000000000000000000000000000000000000000000000000000000007f000000000000000000000000000000000000000000000000000000000000000060037f000000000000000000000000000000000000000000000000000000000000000060016040518663ffffffff1660e01b815260040161053a9594939291906111ee565b6020604051808303816000875af1158015610559573d6000803e3d6000fd5b505050506040513d601f19601f8201168201806040525081019061057d9190611256565b9050807febf56642252004c18a776f30d528e7a0ce8c5db14b6596fb6550f630c8a24c6c60405160405180910390a250505050565b60006001905090565b60008080549050905090565b6000600160149054906101000a900460ff16905090565b600060606000600160149054906101000a900460ff16600181111561060657610605610e93565b5b6000600181111561061a57610619610e93565b5b14905060007f00000000000000000000000000000000000000000000000000000000000000006002544261064e91906112b2565b1190506000806000805490501190506000804711905083801561066e5750825b80156106775750815b80156106805750805b955050505050915091565b7f00000000000000000000000000000000000000000000000000000000000000003410156106e5576040517fec269fd100000000000000000000000000000000000000000000000000000000815260040160405180910390fd5b600060018111156106f9576106f8610e93565b5b600160149054906101000a900460ff16600181111561071b5761071a610e93565b5b14610752576040517fe76be6fc00000000000000000000000000000000000000000000000000000000815260040160405180910390fd5b6000339080600181540180825580915050600190039060005260206000200160009091909190916101000a81548173ffffffffffffffffffffffffffffffffffffffff021916908373ffffffffffffffffffffffffffffffffffffffff1602179055503373ffffffffffffffffffffffffffffffffffffffff167f1d64fb5ba9f2548c5b98468d58f25b87b9e866afee0122e92d9fe722bf85076c60405160405180910390a2565b6000600254905090565b60006003905090565b6000808281548110610822576108216112e6565b5b9060005260206000200160009054906101000a900473ffffffffffffffffffffffffffffffffffffffff169050919050565b600080805490508260008151811061086f5761086e6112e6565b5b60200260200101516108819190611344565b90506000808281548110610898576108976112e6565b5b9060005260206000200160009054906101000a900473ffffffffffffffffffffffffffffffffffffffff1690506000600160146101000a81548160ff021916908360018111156108eb576108ea610e93565b5b021790555080600160006101000a81548173ffffffffffffffffffffffffffffffffffffffff021916908373ffffffffffffffffffffffffffffffffffffffff160217905550600067ffffffffffffffff81111561094c5761094b610bb6565b5b60405190808252806020026020018201604052801561097a5781602001602082028036833780820191505090505b5060009080519060200190610990929190610a85565b504260028190555060008173ffffffffffffffffffffffffffffffffffffffff16476040516109be906113a6565b60006040518083038185875af1925050503d80600081146109fb576040519150601f19603f3d011682016040523d82523d6000602084013e610a00565b606091505b5050905080610a3b576040517f1c94012000000000000000000000000000000000000000000000000000000000815260040160405180910390fd5b8173ffffffffffffffffffffffffffffffffffffffff167f5b690ec4a06fe979403046eaeea5b3ce38524683c3001f662c8b5a829632f7df60405160405180910390a25050505050565b828054828255906000526020600020908101928215610afe579160200282015b82811115610afd5782518260006101000a81548173ffffffffffffffffffffffffffffffffffffffff021916908373ffffffffffffffffffffffffffffffffffffffff16021790555091602001919060010190610aa5565b5b509050610b0b9190610b0f565b5090565b5b80821115610b28576000816000905550600101610b10565b5090565b6000819050919050565b610b3f81610b2c565b82525050565b6000602082019050610b5a6000830184610b36565b92915050565b6000604051905090565b600080fd5b600080fd5b610b7d81610b2c565b8114610b8857600080fd5b50565b600081359050610b9a81610b74565b92915050565b600080fd5b6000601f19601f8301169050919050565b7f4e487b7100000000000000000000000000000000000000000000000000000000600052604160045260246000fd5b610bee82610ba5565b810181811067ffffffffffffffff82111715610c0d57610c0c610bb6565b5b80604052505050565b6000610c20610b60565b9050610c2c8282610be5565b919050565b600067ffffffffffffffff821115610c4c57610c4b610bb6565b5b602082029050602081019050919050565b600080fd5b6000610c75610c7084610c31565b610c16565b90508083825260208201905060208402830185811115610c9857610c97610c5d565b5b835b81811015610cc15780610cad8882610b8b565b845260208401935050602081019050610c9a565b5050509392505050565b600082601f830112610ce057610cdf610ba0565b5b8135610cf0848260208601610c62565b91505092915050565b60008060408385031215610d1057610d0f610b6a565b5b6000610d1e85828601610b8b565b925050602083013567ffffffffffffffff811115610d3f57610d3e610b6f565b5b610d4b85828601610ccb565b9150509250929050565b600073ffffffffffffffffffffffffffffffffffffffff82169050919050565b6000610d8082610d55565b9050919050565b610d9081610d75565b82525050565b6000602082019050610dab6000830184610d87565b92915050565b600080fd5b60008083601f840112610dcc57610dcb610ba0565b5b8235905067ffffffffffffffff811115610de957610de8610db1565b5b602083019150836001820283011115610e0557610e04610c5d565b5b9250929050565b60008060208385031215610e2357610e22610b6a565b5b600083013567ffffffffffffffff811115610e4157610e40610b6f565b5b610e4d85828601610db6565b92509250509250929050565b600063ffffffff82169050919050565b610e7281610e59565b82525050565b6000602082019050610e8d6000830184610e69565b92915050565b7f4e487b7100000000000000000000000000000000000000000000000000000000600052602160045260246000fd5b60028110610ed357610ed2610e93565b5b50565b6000819050610ee482610ec2565b919050565b6000610ef482610ed6565b9050919050565b610f0481610ee9565b82525050565b6000602082019050610f1f6000830184610efb565b92915050565b600080fd5b600067ffffffffffffffff821115610f4557610f44610bb6565b5b610f4e82610ba5565b9050602081019050919050565b82818337600083830152505050565b6000610f7d610f7884610f2a565b610c16565b905082815260208101848484011115610f9957610f98610f25565b5b610fa4848285610f5b565b509392505050565b600082601f830112610fc157610fc0610ba0565b5b8135610fd1848260208601610f6a565b91505092915050565b600060208284031215610ff057610fef610b6a565b5b600082013567ffffffffffffffff81111561100e5761100d610b6f565b5b61101a84828501610fac565b91505092915050565b60008115159050919050565b61103881611023565b82525050565b600081519050919050565b600082825260208201905092915050565b60005b8381101561107857808201518184015260208101905061105d565b60008484015250505050565b600061108f8261103e565b6110998185611049565b93506110a981856020860161105a565b6110b281610ba5565b840191505092915050565b60006040820190506110d2600083018561102f565b81810360208301526110e48184611084565b90509392505050565b600061ffff82169050919050565b611104816110ed565b82525050565b600060208201905061111f60008301846110fb565b92915050565b60006020828403121561113b5761113a610b6a565b5b600061114984828501610b8b565b91505092915050565b60006040820190506111676000830185610d87565b6111746020830184610d87565b9392505050565b60006060820190506111906000830186610b36565b61119d6020830185610b36565b6111aa6040830184610b36565b949350505050565b6000819050919050565b6111c5816111b2565b82525050565b600067ffffffffffffffff82169050919050565b6111e8816111cb565b82525050565b600060a08201905061120360008301886111bc565b61121060208301876111df565b61121d60408301866110fb565b61122a6060830185610e69565b6112376080830184610e69565b9695505050505050565b60008151905061125081610b74565b92915050565b60006020828403121561126c5761126b610b6a565b5b600061127a84828501611241565b91505092915050565b7f4e487b7100000000000000000000000000000000000000000000000000000000600052601160045260246000fd5b60006112bd82610b2c565b91506112c883610b2c565b92508282039050818111156112e0576112df611283565b5b92915050565b7f4e487b7100000000000000000000000000000000000000000000000000000000600052603260045260246000fd5b7f4e487b7100000000000000000000000000000000000000000000000000000000600052601260045260246000fd5b600061134f82610b2c565b915061135a83610b2c565b92508261136a57611369611315565b5b828206905092915050565b600081905092915050565b50565b6000611390600083611375565b915061139b82611380565b600082019050919050565b60006113b182611383565b915081905091905056fea2646970667358221220263e78fa570b7f01f8e8f7370bb31d168137afb0dd290e9687251c2f5db52bae64736f6c63430008130033",
  "linkReferences": {},
  "deployedLinkReferences": {}
}